:020000040800F2
:1000000028C40020ED02000875260008C52000085D
:1000100071260008ED1900089B320008000000005E
:10002000000000000000000000000000BD2B0008E0
:10003000611C000800000000D1290008D12C000834
:100040000703000807030008070300080703000868
:100050000703000807030008651C00089D1C000832
:10006000D51C00080D1D0008451D000807030008E9
:100070000703000807030008070300080703000838
:100080000703000807030008070300080703000828
:100090000703000807030008070300087D1D000888
:1000A0000703000807030008070300080703000808
:1000B00007030008352D0008912F000807030008EA
:1000C00007030008070300080703000807030008E8
:1000D00007030008A9300008070300080703000809
:1000E00007030008070300080703000807030008C8
:1000F00007030008070300080703000807030008B8
:1001000007030008070300080703000807030008A7
:100110000703000807030008070300080703000897
:100120000703000807030008070300080703000887
:1001300000F002F800F06FF80AA090E8000C82448A
:100140008344AAF10107DA4501D100F064F8AFF267
:10015000090EBAE80F0013F0010F18BFFB1A43F0A5
:1001600001031847EC7703000C7803000A444FF0B2
:10017000000C10F8013B13F0070408BF10F8014B06
:100180001D1108BF10F8015B641E05D010F8016B4B
:10019000641E01F8016BF9D113F0080F1EBF10F8AF
:1001A000014BAD1C0C1B09D16D1E58BF01F801CBD2
:1001B000FAD505E014F8016B01F8016B6D1EF9D555
:1001C0009142D6D37047000000230024002500266A
:1001D000103A28BF78C1FBD8520728BF30C148BFAA
:1001E0000B607047662906F0A683642900F05E81E3
:1001F000782900F09781002070471FB500F097FA2A
:1002000000F0B2FD04000020002105F04DFDE0608B
:100210001FBD10B510BD00F0ABFE1146FFF7EDFF9E
:1002200004F04EFC00F0C9FE03B4FFF7F2FF03BC7C
:1002300003F050F880F3088870470000EFF3038064
:100240007047EFF308807047EFF30881A1EB0001DE
:1002500081F308887047EFF30881014481F308882F
:100260007047EFF3088101440FC97047104670478B
:1002700018467047EFF3088108587047EFF308827B
:1002800011507047046045608660C760C0F81080F8
:10029000C0F81490C0F818A0C0F81CB070470468EB
:1002A00045688668C768D0F81080D0F81490D0F8F8
:1002B00018A0D0F81CB070470B49D1F800C04A68AC
:1002C0005CF8043B1068184442F8040B8C4528BFC6
:1002D000A1F1DC0C8A4228BFA1F1DC02C1F800C008
:1002E0004A6020F000407047C0BD002009488047A8
:1002F00009480047FEE7FEE7FEE7FEE7FEE7FEE708
:10030000FEE7FEE7FEE7FEE704480549054A064B1F
:1003100070470000D52C00083101000828BE0020DD
:1003200028C4002028C0002028C00020704753EABD
:10033000020C00F069802DE9F04B4FF00006002B15
:100340001FBFB3FA83F503FA05F424FA05F65E40FD
:1003500012BF1643B2FA82F502FA05F4C5F1200580
:100360001EBF22FA05FC44EA0C04203556EA044C70
:100370004FEA144418BF641C4FF000084FF0000906
:10038000904271EB030C39D3002919BFB1FA81F700
:1003900001FA07F6B0FA80F700FA07F6C7F120076E
:1003A0001EBF20FA07FC46EA0C062037B6FBF4FC19
:1003B000A7EB0507103F07F01F0BCBF120060CFA47
:1003C0000BFB2CFA06F644BFB3460026202FA4BF31
:1003D0005E464FF0000B5BEA060C08BF4FF0010BC6
:1003E00019EB0B09ABFB027C48EB0608C01B06FBB4
:1003F00002CC0BFB03CC71EB0C01C1E70B460246B0
:1004000041464846BDE8F08B13B54FF000004FF071
:100410000001AFF30080BDE81C4070470FB40449F1
:1004200010B503AA029800F05BFC10BC5DF814FB49
:10043000B41500200FB41CB5074B06AA7B446946CF
:100440000090059800F033FC0020694600F042FC63
:100450001CBC5DF814FB00009508000070B5044654
:1004600085690068C10601D5302600E02026C00756
:1004700007D070BDD4E9012130469047206A401C66
:1004800020626D1EF6D570BD70B504468569007892
:10049000C00707D170BDD4E9012120209047206A10
:1004A000401C20626D1EF6D570BD00002DE9F041A4
:1004B0000646002410687529314616A510D0AFF302
:1004C0000080002802DA404213A507E031688A075D
:1004D00001D512A502E0490704D511A5012401E0C8
:1004E000AFF3008000210A2206F1240709E0B0FBE7
:1004F000F2FCB0FBF2F302FB1C00303078541846DB
:10050000491C0028F3D123462A463046BDE8F04175
:1005100000F05FB9000000002D0000002B0000007B
:100520002000000070B504460D4621461068AFF368
:1005300000802188090502D50F4A7A4402E00E4A5C
:100540007A440E32002104F1240305E000F00F0686
:100550000009965D5E54491C0028F7D120780023DD
:10056000000704D5702D02D009B1022311322046B4
:10057000BDE8704000F02DB9457303002DE9F05F30
:10058000894604464FF0000ADFF874B1FB44C0F816
:1005900020A02046E1688847002874D0252806D08E
:1005A000D4E901219047206A401C2062F1E700262F
:1005B0005F462046E16888472028054607DB312D45
:1005C00005D2781910F8200C08B10643F1E7B007FE
:1005D00001D526F00406C4F81CA00027C4F818A012
:1005E0002A2D09D0284602F06EFE38B304EB8708A6
:1005F000303DC8F8185019E059F8041B204604EBA8
:1006000087029161E1688847012F054618D1E069AA
:10061000002820DA26F020061DE0D8F8180000EBAC
:10062000800005EB40003038C8F818002046E1682B
:100630008847054602F047FE0028EED1012F0AD078
:100640002E2D08D12046E16888477F1C0546022FE1
:1006500046F02006C4DBA069002803DA404246F0D9
:100660000106A061F00701D026F010066C2D0BD01A
:10067000682D09D04C2D39D06A2D35D0742D35D048
:100680007A2D33D016E038E0E1682F4620468847BF
:10069000B842054609D16C2F26D04FF48060E1683E
:1006A000064320468847054604E06C2F1AD04FF4D5
:1006B000807006430DB3A5F14100192802D82035FA
:1006C00046F400664A462946204626604E46FFF715
:1006D00089FD80B101280BD0F61D26F0070000F13E
:1006E000080956E74020E4E78020D8E70020D6E755
:1006F00006F104094DE7284652E7206ABDE8F09F5D
:100700001B7303000B4910B5A1F17C020A4CC2E92E
:100710003712372106E000EB104342F82130074B37
:1007200000FB03400B1EA1F10101F4DC10BD012010
:10073000E8E7000060BD0020E119D666CD0D01009C
:10074000032A40F2308010F0030C00F0158011F8FD
:10075000013BBCF1020F624498BF11F801CB00F8D5
:10076000013B38BF11F8013BA2F1040298BF00F829
:1007700001CB38BF00F8013B11F0030300F0C28247
:10078000083AC0F0088051F8043B083A51F804CB0D
:10079000A0E80810F5E7121D5CBF51F8043B40F8D3
:1007A000043BAFF30080D20724BF11F8013B11F8DE
:1007B00001CB48BF11F8012B24BF00F8013B00F822
:1007C00001CB48BF00F8012B704770477047704756
:1007D00070472DE9F0470D4699469246044600F1D0
:1007E00024080168880604D5E06921F01001216021
:1007F00000E00120A84201DD471B00E00027A169BD
:100800007A1902EB0900081AA0612078C00602D408
:100810002046FFF723FE002608E0D4E901211AF85C
:1008200006009047206A401C761C20624E45F4DB8F
:100830002078C0060AD52046FFF710FE06E0D4E96E
:10084000012130209047206A401C2062381EA7F109
:100850000107F4DC07E0D4E9012118F8050090470E
:10086000206A401C2062281EA5F10105F3DC204609
:10087000FFF70AFE2078000602D50220BDE8F087C7
:100880000120FBE770472DE9FF4F0C461E464FF055
:10089000FF378BB0D2E90001DDF860800A908A460C
:1008A000C1F30A5505B93D46002108464FF0000046
:1008B000BAF1000F00F4400005DA00EB80004FF4BD
:1008C000400101EA50004FEA9059B9F1010F00DDF3
:1008D000B9460A9850EA4A000ED044F61050A5F2E4
:1008E000FF3545432F14B8F1000F1ED07542291E65
:1008F0001EDDC9F100021CE0B8F1010F4FF000004D
:1009000001D0302103E0F24305E02154401CB04205
:10091000FBDB30460022002121540B99C1F80880EE
:10092000C1E900200FB0BDE8F08FBD1B6D1CDEE7F4
:100930004A4600DA694206A800F0A0FA06AB93E83E
:10094000070003AB83E8070050460A9900F07EFBDE
:100950008DE80700A0F500501F3800900398002D87
:100960000ADD42F21F014A460844002303A903900E
:10097000684600F0E7FD09E0A0F500504A461F3840
:10098000002303A90390684600F0F1FD8DE80700FD
:100990000004000C03D04FF0FF30410800E0104687
:1009A000B8F1000F03D00022009215461EE0751E1C
:1009B00005D400F0DDF9303262556D1EF9D5B3462D
:1009C0000122084302D000227F1C04E02078302856
:1009D00001D100227F1E002A099784D01DE0112D2D
:1009E00007DA00F0C5F9303262556D1C50EA010299
:1009F000F5D1084302D00098C8B10EE00021681E6E
:100A000005E0235C625C63542254401E491C814211
:100A1000F7DBAB46A81B401E0990002004F80B0032
:100A20000B98099AC0F80880C0E9002B7AE71126D4
:100A30004FF0000857E72DE9F04F88460446D21DD5
:100A400022F0070191B0D1E90001CDE90A0102F0DD
:100A500026FC02460B98C00F01D02D2007E020682D
:100A6000810701D52B2002E0202101EAC000032AE2
:100A7000099001D0072A05DB03464146204600F0D5
:100A8000BDF90BE12078800601D5E06900E0062081
:100A9000B8F1650F814606D0B8F1660F18D0B8F1ED
:100AA000670F70D131E00020B9F1110F009001DB28
:100AB000112301E009F101030AAA01A90CA8FFF71B
:100AC000E2FEDDE90C70002609F10105834647E0EE
:100AD00001204B4600904FF000470AAA01A90CA83C
:100AE000FFF7D1FEDDE90DB00C995D46002610B987
:100AF00009F101000D18B9EB050003D4C0F1FF3670
:100B000009F10105A5EB09002BE0B9F1010F01DAAC
:100B10004FF001090020B9F1110F0090484601DDA6
:100B2000112300E003460AAA01A90CA8FFF7ABFEB7
:100B3000DDE90C704D4600268346207800070AD474
:100B4000AB4500DA5D4601A8012D04DD411911F81D
:100B5000011C302907D04F4502DA17F1040F04DADF
:100B6000012082460FE06D1EEEE7002F02DCED1B38
:100B70003E4403E0781CA84200DD7D1CB81B00F158
:100B8000010A4FF000472078000703D4AA4501DB93
:100B90004FF0FF3A0021B7F1004F0DF143088DF8F7
:100BA000431024D002202B23002F01DA7F422D2373
:100BB0000A21021EA0F1010000DC5FB197FBF1FCED
:100BC00097FBF1F201FB1C7C17460CF1300C08F886
:100BD00001CDEEE7A8F1010003702188090501D5D8
:100BE000452100E06521A0F1010800F8011C0998E9
:100BF0000FA9A1EB0807FF1D00B10120411901EB6E
:100C0000EA70A1693844081A401EA0612078C00625
:100C100002D42046FFF722FC099828B1D4E901212B
:100C20009047206A401C20622078C00622D52046CA
:100C3000FFF714FC1EE0002E04DBB34502DD01A823
:100C4000805D00E03020D4E901219047206A401CFB
:100C50002062761CAAF101005FEA000A0AD100F0C6
:100C600083F8C0680168405CD4E901219047206A9C
:100C7000401C2062281EA5F10105DCDC07E0D4E958
:100C8000012118F8010B9047206A401C2062381E91
:100C9000A7F10107F3DC2046FFF7F6FB032011B0B4
:100CA00041E6000001694A1C02610878704700B5FE
:100CB0008FB0CDE901310021059105497944CDE995
:100CC000031011466846FFF759FC0FB000BD000045
:100CD000E5FFFFFF0A6802F8010B0A607047000099
:100CE000074B70B50D467B44FFF7E1FF04462846ED
:100CF00000F036F910B14FF0FF3070BD204670BDE6
:100D00001F36000010B5203AC0F00B80B1E8185033
:100D1000203AA0E81850B1E81850A0E81850BFF4E5
:100D2000F5AF5FEA027C24BFB1E81850A0E8185084
:100D300044BF18C918C0BDE810405FEA827C24BFD8
:100D400051F8043B40F8043B08BF7047D20728BF66
:100D500031F8023B48BF11F8012B28BF20F8023BB5
:100D600048BF00F8012B704700487047E8BD0020DD
:100D700030B5B0F10A024FEA900E71F100034EEA6D
:100D8000817EB0EB0E0061EB91014FEA101E4EEA3E
:100D9000017E10EB0E0041EB11114FEA102E4EEACE
:100DA000016E10EB0E0041EB11214FEA104E4EEA9E
:100DB000014E10EB0E0041EB1141401841F10001D2
:100DC0004FEAD00040EA41704FEAD10110EB8005B4
:100DD0004FEA810444EA907444EB01046D1944EB3A
:100DE0000404521BA3414FF0000348BF0A3200D550
:100DF00030BD401C41F1000130BD00002DE9F04143
:100E00001F46044603260168072A01F4006004DB3C
:100E100008B116A505E016A503E008B115A500E088
:100E200015A521F010002060A069C01EA0610FB1BF
:100E3000401EA0612046FFF711FB4FB1D4E901210C
:100E400038469047206A401C2062C01C206206E0A1
:100E5000206AFAE7D4E9012115F8010B9047761EC4
:100E6000F8D22046FFF710FBBDE8F0814E414E005E
:100E70006E616E00494E4600696E66002DE9F047CE
:100E8000814616468AB0354878440DC88DE80D0075
:100E900032487844801C03AC0DC884E80D0041F64C
:100EA0009B300844372190FBF1F290FBF1F5A5F15E
:100EB000800501FB12041B3C02D56442012000E0C6
:100EC0000020DFF898A080460027FA44AAF1BE0A65
:100ED0000EE0E0070AD03246684607EB47010123DF
:100EE0000AEB810100F043FB8DE8070064107F1CD2
:100EF000002CEED1194F7F44AE3F19E0E80715D022
:100F000007EB04100DF1180A90E80E008AE80E00B5
:100F1000C068F04201D1981908903246012306A911
:100F200003A800F024FB03AB83E807006D10641CEA
:100F3000002DE3D14FF0010332466946B8F1000FAE
:100F400003A802D000F0FEFA01E000F010FBC9E9AE
:100F50000001C9F808200AB0BDE8F087AC6A0300B8
:100F6000007B00F08000704700487047C8BD00203B
:100F70007546FFF7F9FFAE4605006946534620F077
:100F80000700854618B020B5FFF7BEF9BDE8204040
:100F90004FF000064FF000074FF000084FF0000B35
:100FA00021F00701AC46ACE8C009ACE8C009ACE8E8
:100FB000C009ACE8C0098D46704710B50446AFF3D0
:100FC00000802046BDE81040FFF72EB94FF0013CED
:100FD00050F8042B51F8043B9A4221D1A2EB0C03A8
:100FE000934313EACC1317D150F8042B51F8043B68
:100FF0009A4215D1A2EB0C03934313EACC130BD105
:1010000050F8042B51F8043B9A4209D1A2EB0C038F
:10101000934313EACC13DBD04FF00000704700BFBE
:10102000D01A01BAB1FA81F101F0180122FA01F0E7
:10103000CB40C1F12001DBB2C0B2C01A2CFA01F3DF
:10104000D11A914311EAC311E6D170475FEA400C0F
:1010500008BF91F0000F4FEA8C234FEAC12243EA08
:1010600051514FEA1C5018BF00F5F0404FEA3000D4
:1010700018BF41F000415FEA6C5C00F02980BCF1D0
:10108000FF3F08BF40F080407047130C06BF1204BA
:101090004FF0100C4FF0000C130E04BF12020CF1B5
:1010A000080C130F04BF12010CF1040C930F04BFC2
:1010B00092000CF1020CD30F04BF52000CF1010C92
:1010C00011464FF00002A0F11F00A0EB0C0070478A
:1010D00011F0004F08BF704731F000413FF4D5AF29
:1010E0000B0C06BF09044FF0100C4FF0000C0B0E58
:1010F00004BF09020CF1080C0B0F04BF09010CF12D
:10110000040C8B0F04BF89000CF1020CCB0F04BF41
:1011100049000CF1010CCCF12003A0EB0C0022FAE9
:1011200003F302FA0CF241EA030100F101007047F7
:1011300020F07F4C80EA030023F07F47ACEB0703ED
:1011400003F57C5300F0004003F1FF032DE98049D3
:101150004FEA154B09B44FEA144325EA0B4E24EA33
:1011600003480FF2042606EB132749083E785FEA8E
:10117000320203FB0667C7F5000707FB06F64FEAD6
:1011800054374FEAD64606F1020607FB066CCCF14F
:10119000005C4FEA1C472CEA074C07FB06F40CFBEB
:1011A00006F504EB15464FEA961634BF00204FF0C3
:1011B00000404FEAD13706FB07FC4FEA1C4C0CFB02
:1011C0000BF7D21B03FB0CF761EB07010CFB0EF7CF
:1011D000B0EB074072EB17420CFB08F734BFA2EBF1
:1011E0000742B2EB074261EB17414FEA0C444FEA6A
:1011F000910706FB07FC4FEA1C4C0CFB0BF7B0EB0E
:10120000C74072EB573203FB0CF734BFA2EBC74267
:10121000B2EBC74261EB57310CFB0EF7B0EBC700E6
:1012200072EB57720CFB08F734BFA2EBC702B2EBAC
:10123000C70261EB5771039F4FEA816141EA921146
:1012400004EBCC044FEAD1374FEA826206FB07FC7D
:1012500042EA90124FEA80604FEA1C4C0CFB0BF7FD
:10126000D21B03FB0CF761EB07010CFB0EF7B0EB95
:10127000074072EB17420CFB08F734BFA2EB0742A2
:10128000B2EB074261EB17414FEA8C554FEA9107E9
:1012900004EB9C2406FB07FC4FEA1C4C0CFB0BF7F1
:1012A000B0EBC74072EB573203FB0CF734BFA2EB35
:1012B000C742B2EBC74261EB57310CFB0EF7B0EB04
:1012C000C70072EB57720CFB08F734BFA2EBC702E2
:1012D000B2EBC70261EB577115EB4C254FEA816108
:1012E00041EA92114FEA82624FEAD13742EA901204
:1012F00006FB07FC44F100044FEA80604FEA1C4CF7
:101300000CFB0BF7D21B03FB0CF761EB07010CFB8B
:101310000EF7B0EB074072EB17420CFB08F734BF37
:10132000A2EB0742B2EB074261EB174115EB1C152C
:101330004FEA813141EA92414FEA823242EA9042D9
:101340004FEA80304FEA0C7644F1000448EA034348
:101350004EEA0B484FF0000EB2EB080C71EB03079E
:1013600024BF624639464EEB0E0E4FF0000B0018BC
:10137000524149414BEB0B0BB2EB080C71EB0307ED
:101380007BF1000B24BF624639464EEB0E0E4FF048
:10139000000B0018524149414BEB0B0BB2EB080C10
:1013A00071EB03077BF1000B24BF624639464EEB1D
:1013B0000E0E51EA020718BF46F0010616EB0E7634
:1013C00055F1000254F1000103D5BDE88901BDE8E3
:1013D0000088BDE88901BDE80048B619524141EBDB
:1013E0000101A3F10103704780807F7E7D7C7B7AC1
:1013F0007978777676757473727171706F6E6E6DC1
:101400006C6C6B6A6A696868676666656464636366
:1014100062616160605F5F5E5E5D5D5C5C5B5B5AEC
:101420005A59595858575756565555555454535359
:1014300052525251515050504F4F4F4E4E4D4D4DB4
:101440004C4C4C4B4B4B4A4A4A49494948484847FF
:10145000474747464646454545444444444343433D
:101460004342424242414141002B9C4630D47700E6
:101470002BD01CB54FEA370703B44FF010004FF0E4
:101480001001BAF1000F06D0BCF1000FDCBF40F034
:10149000080040F008014FF000000FBCBDE810400C
:1014A0000BF1010BBBF1010F08BF5FEA170722BF69
:1014B00012F1010211F101014FF0004143F100036B
:1014C00000F0004043EA00007047F9D35708D0E726
:1014D00046EA064613F1400F4FEA16461FDD13F1A8
:1014E000200FDFBF16430A46002120335B42BED0E7
:1014F000C3F1200746EA064602FA07F74FEA164606
:1015000046EA0706C3F1200722FA03F201FA07F7B9
:1015100021FA03F14FF0000342EA0702A7E746EA87
:10152000020646EA06464FEA164646EA0106BCBFF0
:1015300046EA0646360C4FF000034FF000024FF02B
:10154000000194E72DE9804C9A46934670B491E8E7
:10155000380007C831EA400C48BF34EA430C03D5D1
:10156000FFF7E6FDFFF780FFF0BCBDE8008C2DE93A
:10157000804C9A46934670B491E8380007C810F042
:10158000804F08BF13F0804F03D100F005F8FFF73C
:101590006BFFF0BCBDE8008C20F07F4780EA0300C1
:1015A00023F07F4C07EB0C03A3F57C5300F00040C5
:1015B000A3F1FE0392F0000F00F0B38095F0000F4E
:1015C00000F077802DE901494FEA11404FEA1446B7
:1015D00021EA004800FB06FC24EA064708FB06F661
:1015E00007FB08F800FB07F718EB06484CEB164C16
:1015F0004FEA124B18EB07484FEA15464CEB1740E1
:1016000022EA0B4E0BFB06FC25EA06470EFB06F60C
:1016100007FB0EFE0BFB07F71EEB064E4CEB164CC2
:101620004FF000061EEB074E4CEB174B18EB0B0868
:1016300040F1000018EB0E0B58EB000840F10000E1
:101640008F1A4FF000013CBFC943661B14BFB5EBB6
:10165000040C00213CBFC943F61B4FEA17444EEA75
:101660008E0E27EA04454FEA1C4704FB07622CEA6A
:10167000074C05FB07F70CFB05F604FB0CFC16EB0F
:10168000074642EB174216EB0C4642EB1C421BEBA3
:10169000060658EB0202414146EA9E0601D5BDE826
:1016A0000189B619524141EB0101A3F10103BDE8E3
:1016B00001894FEA14454FEA114724EA054621EA19
:1016C000074C05FB07F406FB07F70CFB06F105FBCF
:1016D0000CFC11EB074144EB17444FEA124711EBA6
:1016E0000C4144EB1C4422EA074C05FB07F206FBC5
:1016F00007F70CFB06F605FB0CFC16EB074642EB66
:10170000174216EB0C4642EB1C456A1854F10001D7
:1017100048BF7047B619524141EB0101A3F10103E3
:10172000704795F0000F37D04FEA11424FEA144747
:1017300021EA024624EA074C02FB07F106FB07F701
:101740000CFB06F402FB0CFC14EB074441EB1741C5
:101750004FEA154714EB0C4441EB1C4125EA074CBA
:1017600002FB07F506FB07F70CFB06F602FB0CFC79
:1017700016EB074645EB174516EB0C4645EB1C42AE
:10178000121951F1000148BF7047B619524141EB9F
:101790000101A3F1010370474FEA14454FEA1147D5
:1017A00024EA054621EA074C05FB07F106FB07F78B
:1017B0000CFB06F24FF0000605FB0CFC12EB074297
:1017C00041EB174112EB0C4251EB1C4148BF7047F3
:1017D000921841EB0101A3F10103704721B1826826
:1017E00042F00102826003E0826822F0010282601E
:1017F0007047000010B504461248844208D1012108
:10180000401501F023F90021601501F01FF917E0E0
:101810000D48844208D10121001501F017F900217B
:10182000201501F013F90BE00848844208D101218A
:10183000C80301F00BF900214FF4004001F006F954
:1018400010BD00000024014000280140003C014080
:10185000014600208A6802F004020AB1012000E07B
:10186000002070470146C86C80B2704702460020D5
:1018700013680B400BB1012000E0002070470146C7
:1018800000208A6802F008020AB1012000E000206E
:101890007047000030B502460020002350680F4C0E
:1018A00020400D790C6844EA05242043506090687C
:1018B0000B4C2040D1E902542C434D7944EA4504B5
:1018C00020439060D06A20F470000C7C641EE4B267
:1018D000234340EA0350D06230BD0000FFFEF0FF1A
:1018E000FDF7F1FFF0B504460D4600200021092D5B
:1018F00011DDE068A5F10A0606EB4607072606FAA1
:1019000007F18843A5F10A0606EB460603FA06F13D
:101910000843E0600CE0206905EB4507072606FA5E
:1019200007F1884305EB450603FA06F108432061F9
:10193000072A0FDA606B561E06EB86071F2606FA8B
:1019400007F18843561E06EB860605FA06F10843A2
:10195000606322E00D2A0FDA206BD61F06EB8607A4
:101960001F2606FA07F18843D61F06EB860605FAFE
:1019700006F10843206310E0E06AA2F10D0606EBD1
:1019800086071F2606FA07F18843A2F10D0606EB2B
:10199000860605FA06F10843E062F0BD816841F071
:1019A00008018160704721B1826842F4A002826020
:1019B00003E0826822F4A00282607047816841F0EF
:1019C000040181607047000030B10749096841F4A3
:1019D0000001054A116005E00349096821F400018E
:1019E000014A1160704700000824014000BFFEE773
:1019F00039B1084A1268012383401A43054B1A6023
:101A000006E0044A1268012383409A43014B1A609E
:101A1000704700000074004030B5002200230A4CDB
:101A2000226840F6FE748440A243D1E900452C436D
:101A30008D682C43CD6844EA050303FA00F4224381
:101A4000014C226030BD00000074004008B5002247
:101A50000092054A009200F10802009B1A4400928D
:101A6000009A116008BD00000074004000F0805131
:101A700011B10349086001E0024948607047000065
:101A8000040402400000024021B1026842F0010259
:101A9000026004E002684FF6FE731A40026070476D
:101AA00001684FF6FE721140016000210160416043
:101AB0008160C1604B49884208D14A490839496868
:101AC00041F00F01474A083A51608AE04549143114
:101AD000884208D143490839496841F0F001414A38
:101AE000083A51607DE03F492831884208D13D499C
:101AF0000839496841F470613A4A083A516070E027
:101B000038493C31884208D136490839496841F49E
:101B10007041344A083A516063E03249503188429A
:101B200008D130490839496841F470212D4A083AF2
:101B3000516056E02B496431884208D1294908395F
:101B4000496841F47001274A083A516049E0254943
:101B50007831884208D123490839496841F07061D9
:101B6000204A083A51603CE01F49884206D1011FD3
:101B7000096841F00F01021F116032E01A49143167
:101B8000884208D11849091F096841F0F001164A36
:101B9000121F116025E014492831884208D11249EA
:101BA000091F096841F470610F4A121F116018E0A3
:101BB0000D493C31884208D10B49091F096841F49D
:101BC0007041094A121F11600BE0074950318842E9
:101BD00007D10549091F096841F47021024A121F03
:101BE000116070470800024008040240014648683E
:101BF00080B2704701460020002201F0805313B1EB
:101C0000054B1A6801E0054B1A6802EA01030BB1A3
:101C1000012000E000207047000402400000024064
:101C200010B50022026847F6F0739A430C6A8B687D
:101C300023430C6923434C6923438C692343CC69B8
:101C400023434C6A23438C6A23431A430260CB68C4
:101C500043600B6883604B68C36010BD4160704790
:101C60007047000010B50A2002F038FA502003F047
:101C70005DFC30B90848006840F001000649086082
:101C800005E00548006820F00100034908600120D4
:101C900000F0FCF810BD00005C15002010B50A2013
:101CA00002F01CFA512003F041FC30B908480068EA
:101CB00040F002000649086005E00548006820F091
:101CC000020003490860022000F0E0F810BD0000A7
:101CD0005C15002010B50A2002F000FA522003F033
:101CE00025FC30B90848006840F004000649086047
:101CF00005E00548006820F004000349086004205E
:101D000000F0C4F810BD00005C15002010B50A20DA
:101D100002F0E4F9532003F009FC30B908480068E8
:101D200040F008000649086005E00548006820F01A
:101D3000080003490860082000F0A8F810BD000062
:101D40005C15002010B50A2002F0C8F9542003F0F9
:101D5000EDFB30B90848006840F010000649086003
:101D600005E00548006820F01000034908601020D5
:101D700000F08CF810BD00005C15002010B50A20A2
:101D800002F0ACF9202000F087F8A0B1552003F054
:101D9000CDFB30B93C48006840F020003A4908606B
:101DA00005E03948006820F020003749086020200D
:101DB00000F06CF866E0402000F06EF8A0B156200C
:101DC00003F0B4FB30B93048006840F040002E49C1
:101DD000086005E02C48006820F040002A490860AF
:101DE000402000F053F84DE0802000F055F8A0B1FD
:101DF000572003F09BFB30B92348006840F0800077
:101E00002149086005E02048006820F080001E4954
:101E10000860802000F03AF834E04FF4807000F061
:101E20003BF8A8B1582003F081FB30B91648006890
:101E300040F480701449086005E01348006820F4FD
:101E40008070114908604FF4807000F01FF819E0AD
:101E50004FF4007000F020F8A0B1592003F066FBA9
:101E600030B90948006840F400700749086005E08F
:101E70000548006820F40070034908604FF40070C2
:101E800000F004F810BD00005C1500200149086056
:101E90007047000014040140014600200022074B57
:101EA0001B6803EA0102054B14331B680B4013B196
:101EB0000AB1012000E0002070470000000401404A
:101EC000002123498279002A3AD00A461268036821
:101ED0009A430B461A600A1D126803689A430B1D49
:101EE0001A60027911440A6803681A430A60184AA2
:101EF0000832126803689A43154B08331A601A1D9A
:101F0000126803689A43124B0C331A604279102A04
:101F10000ED11A1F126803681A430D4B08331A605A
:101F20001A1D126803681A43094B0C331A600DE03E
:101F30000749427911440A6803681A430A6005E0B8
:101F4000027911440A6803689A430A6070470000E6
:101F50000004014030B500228B071C0F0F2303FA49
:101F600004F20B4B8C1053F824309343084C8D1023
:101F700044F8253023468C1053F824308C07240F66
:101F800000FA04F42343024C8D1044F8253030BD90
:101F9000080001402DE9F0410246002500260020FE
:101FA00000230024002791F803C00CF00F0591F8DE
:101FB00003C00CF0100CBCF1000F03D091F802C06C
:101FC0004CEA050591F800C0BCF1000F31D014684F
:101FD00000202BE04FF0010C0CFA00F3B1F800C028
:101FE0000CEA03069E4220D183004FF00F0C0CFA3E
:101FF00003F7BC4305FA03FC4CEA040491F803C060
:10200000BCF1280F06D14FF0010C0CFA00FCC2F80D
:1020100014C00AE091F803C0BCF1480F05D14FF09D
:10202000010C0CFA00FCC2F810C0401C0828D1D3E7
:102030001460B1F800C0BCF1FF0F34DD546800201B
:102040002EE000F1080C4FF0010808FA0CF3B1F88B
:1020500000C00CEA03069E4221D183004FF00F0C12
:102060000CFA03F7BC4305FA03FC4CEA040491F8AC
:1020700003C0BCF1280F05D100F1080C08FA0CF8D8
:10208000C2F8148091F803C0BCF1480F07D100F1E9
:10209000080C4FF0010808FA0CF8C2F81080401C38
:1020A0000828CED35460BDE8F08102460020936832
:1020B0000B400BB1012000E00020704741617047E8
:1020C0000161704700BFFEE72DE9F04107460C466D
:1020D00015461E4635480068A8B92A2000F02CFA9B
:1020E000384600F01AFA284600F017FA2B2000F0C4
:1020F00023FA204600F011FA304600F00EFA2C20A8
:1021000000F01AFA50E029480068012819D12A2065
:1021100000F012FA384600F000FA284600F0FDF907
:102120002B2000F009FA04F1500188B200F0F5F913
:1021300006F1500188B200F0F0F92C2000F0FCF913
:1021400032E01A480068022815D12A2000F0F4F97C
:10215000384600F0E2F9284600F0DFF92B2000F0C5
:10216000EBF9204600F0D9F9304600F0D6F92C20E2
:1021700000F0E2F918E02A2000F0DEF907F1500142
:1021800088B200F0CAF905F1500188B200F0C5F933
:102190002B2000F0D1F9204600F0BFF9304600F0C6
:1021A000BCF92C2000F0C8F9BDE8F08154150020DE
:1021B00070B504460D4616462B4622462946204653
:1021C000FFF782FF304600F0A8F970BD2DE9FC5FF3
:1021D0000746884614461D46DDF830904FF0010A48
:1021E000CDF80490E01BA5EB080100FB01F6681E8A
:1021F00083B2601E82B241463846FFF765FF2E4823
:102200000068008840F400602B49096808800121BB
:102210002948006800F094FC2DE04FF6FE708642DD
:1022200002D9361A834602E04FF0000AB3461FFA7D
:102230008BF301AA204801680C31204800F0D6F940
:10224000012202211C48006800F086FC1B4800F0B7
:10225000FDF90EE01948FFF7C9FC00904FF400703B
:10226000FFF7C8FC20B14FF40070FFF7FFFB01E05F
:1022700000BFEFE700BFBAF1000FCED10E480068F3
:102280000088C0430C49096808800B480068008832
:1022900040F4006008490968088007480068008821
:1022A000C04305490968088001210348006800F01F
:1022B00047FCBDE8FC9F000058150020300002409C
:1022C00010B55B2003F0F6FA252003F0F3FA112095
:1022D00003F0F0FA0120034908600349086003494C
:1022E000086010BD8481214294012242AC812342C6
:1022F0002DE9FF5F80468A4617469B460F9D0020CA
:102300000290CDF80080284605EBD071C1F3470458
:102310002046E21704EB5272D2102146E31704EB79
:102320005373DB10A4EBC3030BB1012300E00023C4
:102330001A446A4392B20192A7F12000C7B20AEB95
:102340000500401E83B208EB0400401E82B25146D5
:102350004046FFF7B9FE002669E00C2D07D107EBD8
:102360004700354901EB8000805D03901BE0102D94
:1023700005D1324800EB0710805D039013E0182D63
:1023800007D107EB47002E4901EB0010805D039059
:1023900009E0202D05D12B4800EB8710805D0390CC
:1023A00001E0BDE8FF9F4FF000093AE01098C8B97E
:1023B000012000FA09F00399084018B1584600F0CE
:1023C000ACF802E00E9800F0A8F80298401CC0B2E9
:1023D0000290029890FBF4F104FB1100E8B9002090
:1023E000029021E0012000FA09F00399084020B191
:1023F0005A4651464046FFF7DBFE08F101001FFA3E
:1024000080F80098A8EB0000A04206D1DDF800801B
:102410000AF101001FFA80FA06E009F1010000F05C
:10242000FF09B9F1080FC1DB00BF701C86B201982B
:10243000864292DB00BFB4E7864F0208FA530208D7
:10244000EA590208BA6B02082DE9F84F0746884698
:1024500014461D46DDE90A9A4FF0010B04FB05F016
:10246000460008EB0500401E83B23819401E82B2B8
:1024700041463846FFF728FE25E04FF6FE708642BB
:1024800002D9361A009002E04FF0000B0096009837
:1024900083B24A460E4801680C310E4800F078F8C5
:1024A000012202210A48006800F056FB094800F0AA
:1024B000CDF8BAF1000F01D0BDE8F88F03F0AEFB04
:1024C0004FF6FE708144BBF1000FD6D100BFF3E799
:1024D00058150020300002402DE9FE4F06460F46F9
:1024E00014469846DDE90D5ADDF8309010E0CDE94C
:1024F000015ACDF800902278434639463046FFF71E
:10250000F7FE284605EBD07106EB61018EB2641C24
:1025100020780028EBD1BDE8FE8F10B504462012CC
:1025200000F01CF8E0B200F019F810BD10B5044638
:10253000204600F013F810BD10B5044600200549F0
:102540000860204600F00AF801200349C1F8840120
:1025500010BD0000848121420080214210B5044654
:1025600000BF02210948006800F0FFFA0028F8D0F7
:1025700021460648006800F001FB00BF80210348A7
:10258000006800F0F2FA0128F8D010BD58150020BC
:102590002DE9F04107460D4616461C460121084626
:1025A00000F024FA3846FFF77BFA0E4804800E4804
:1025B0000560466010200C4988600846C460002011
:1025C00008618020486100208861C86108624FF47A
:1025D00080504862002088623846FFF721FBBDE842
:1025E000F081000006160020B8BC00202DE9F04163
:1025F00007460D4616461C460121084600F0F6F92E
:102600003846FFF74DFA0F4804800F4805604660D2
:1026100010200D4988600846C460002008614861A8
:102620004FF4807088618000C861002008624FF418
:1026300080504862002088623846FFF7F1FABDE812
:10264000F081000006160020B8BC002010B504463A
:1026500000212046FFF718FA044801882046FFF7BA
:10266000FDFA01212046FFF70FFA10BD06160020E3
:1026700000BFFEE77047000070B5002100230F2265
:10268000C47804B3154C246804F4E064C4F5E06431
:10269000210AC1F10403CA40447804FA03F18478A2
:1026A0001440214309010E4C0678A155047804F02A
:1026B0001F050124AC4005786D11AD0005F1E02542
:1026C000C5F8004109E0047804F01F050124AC407E
:1026D000044D0678761145F8264070BD0CED00E0FB
:1026E00000E400E080E100E002490143024A116099
:1026F000704700000000FA050CED00E070B5002402
:102700000CE0002506E00020074901EBC501085553
:10271000681CC5B2802DF6DB601CC4B2082CF0DB4F
:1027200000F05EF870BD000008160020F0B500262D
:102730000B464FEAE17C01EB5C7CCCF3C70201263F
:102740004FEAE17C01EB5C7C4FEAEC0CA1EBCC0C9A
:102750000CF0FF0402260123A340DDB20326104F34
:1027600004263B4603EBC0039B5CDB43BC460CEBFF
:10277000C00C0CF802303B4603EBC0039B5C2B43C0
:10278000BC460CEBC00C0CF802303B4603EBC0031C
:102790009B5CDB43BC460CEBC00C0CF80230F0BD7C
:1027A0000816002070B50A46CE1701EB5676C6F320
:1027B000C703CE1701EB5676F610A1EBC606F4B2AE
:1027C0000122A240D5B2054A02EBC002D25C2A43E4
:1027D000024E06EBC006F25470BD00000816002041
:1027E00070B500241CE004F1B001C8B2002100F073
:1027F000BDF80021084600F0B9F80021102000F0D3
:10280000B5F8002508E0084901EBC501085D012184
:1028100000F0ACF8681CC5B2802DF4DB601CC4B2BB
:10282000082CE0DB70BD0000081600202DE9FF4FEA
:1028300081B080460E461C4600962046E31704EB06
:102840005373DB1021464FEAE47C04EB5C7C4FEAD7
:10285000EC0CA4EBCC0CBCF1000F02D04FF0010C3F
:1028600001E04FF0000C6344224604EBD27C4FEAB7
:102870006C0C03FB0CF303F0FF0B03982038C7B27A
:10288000002547E00C2C07D107EB4700234901EB5B
:10289000800010F805A014E0102C05D1204800EBB2
:1028A000071010F805A00CE0182C07D107EBC700A3
:1028B0001C4901EB800010F805A002E005B0BDE85E
:1028C000F08F4FF000091FE00AF0800020B1314680
:1028D0004046FFF767FF03E031464046FFF726FF1B
:1028E0004FEA4A604FEA106A701CC6B20098301A6C
:1028F000A04205D1009E08F1010000F0FF0806E0AB
:1029000009F1010000F0FF09B9F1080FDCDB00BF9D
:10291000681CC5B25D45B5DB00BFCFE73A6900086A
:10292000AE6D00089E730008F0B506460F461446CB
:102930001D4613E022782B4639463046FFF776FFD6
:10294000284605EBD07106EB6101CEB2C5F18000DF
:10295000B04202DA0026B81CC7B2641C20782028D6
:1029600002DB20787E28E5DDF0BD000070B504466E
:102970000D461DB101201349086002E000201149F5
:10298000086000200F490831086000BF02210E488E
:10299000006800F0EAF80028F8D021460A480068EC
:1029A00000F0ECF800BF80210748006800F0DDF877
:1029B0000128F8D001200349083108600349C1F813
:1029C000AC0170BDAC8122428C14002000802242F8
:1029D0007047000001460020034A506820F4404040
:1029E00008435060704700000010024029B1064AB9
:1029F00052690243044B5A6104E0034A526982431C
:102A0000014B5A61704700000010024029B1064A8C
:102A1000D2690243044BDA6104E0034AD26982437B
:102A2000014BDA61704700000010024029B1064AEC
:102A300092690243044B9A6104E0034A926982431B
:102A4000014B9A61704700000010024029B1064A0C
:102A5000D2680243044BDA6004E0034AD26882433E
:102A6000014BDA60704700000010024030B50021D1
:102A70000022002400232D4D6D6805F00C0121B1CA
:102A8000042905D0082923D105E0294D056022E05D
:102A9000274D05601FE0254D6D6805F47012234D2C
:102AA0006D6805F48034022505EB92421CB9214D76
:102AB000554305600BE01D4D6D6805F400351DB1F3
:102AC0001C4D5543056002E0194D5543056002E079
:102AD000174D056000BF00BF144D6D6805F0F00193
:102AE0000909154D6B5C0568DD4045600F4D6D684B
:102AF00005F4E061090A104D6B5C4568DD408560B6
:102B00000A4D6D6805F46051C90A0B4D6B5C456850
:102B1000DD40C560054D6D6805F44041890B074DEA
:102B20006B5CC568B5FBF3F5056130BD0010024074
:102B300000127A0000093D00000000201000002073
:102B400021B1028842F04002028004E002884FF680
:102B5000BF731A40028070471AB183880B43838089
:102B600002E083888B4383807047024600201389EC
:102B70000B400BB1012000E00020704781817047BD
:102B800010B50022028802F441520B884C8823437E
:102B90008C882343CC8823430C8923434C892343CB
:102BA0008C892343CC8923431A430280838B4FF2C1
:102BB000FF74234083830B8A038210BD704710B5D6
:102BC00000F002F810BD00000CB50020019000904C
:102BD0003348006840F480303149086000BF304815
:102BE000006800F4003000900198401C01900098AB
:102BF00018B90198B0F5A06FF1D12948006800F428
:102C0000003010B10120009001E0002000900098F9
:102C1000012843D12348006840F010002149086092
:102C20000846006820F0030008600846006840F08D
:102C3000020008601A484068194948600846406820
:102C400048600846406840F4806048600846406834
:102C500020F47C1048600846406840F4E810486062
:102C60000846006840F08070086000BF0C480068AB
:102C700000F000700028F9D00948406820F00300F7
:102C8000074948600846406840F00200486000BFBD
:102C90000348406800F00C000828F9D10CBD000082
:102CA0000010024000200240042808D14FF0E0212B
:102CB000096941F004014FF0E022116107E04FF093
:102CC000E021096921F004014FF0E0221161704711
:102CD0007047000010B51348006840F0010011492A
:102CE000086008464068104908400E494860084698
:102CF00000680E4908400B4908600846006820F447
:102D0000802008600846406820F4FE0048604FF4C8
:102D10001F008860FFF753FF4FF000600449086010
:102D200010BD0000001002400000FFF8FFFFF6FE9B
:102D300008ED00E070B50121904800F049F900B9B4
:102D400070BD8F48D0E9003064229A1840F100002D
:102D50008B49C1E9002008258A480078401CC4B28C
:102D60004DE0082C00D1002404EB440000EBC4002B
:102D7000854911F83000082833D104EB440000EBFA
:102D8000C40001EBC000007A01282AD104EB440002
:102D900000EBC40001EBC000D0E908306421591AEF
:102DA00070F1000008D2102004EB440101EBC401D3
:102DB000754A02F8310014E004EB440000EBC40053
:102DC000714901EBC000D0E90810643960F10000DE
:102DD00004EB440202EBC4026B4B03EBC202C2E9F8
:102DE000081004EB440000EBC400674911F8300000
:102DF000102802D1681EC5B206E0601CC4B2281EAD
:102E0000A5F10101CDB2ACD100BF082C00D1002446
:102E100004EB440000EBC4005B4911F830001028BB
:102E20005DD15A480078002859D1FDF70AFA0646C4
:102E3000F068C01DF0BB5348007800EB400101EB87
:102E4000C000514901EBC00046634E48007800EBDA
:102E5000400101EBC0004C4911F83000042809D1B1
:102E600010204849097801EB410202EBC101464AB2
:102E700002F831004349097801EB410202EBC1013C
:102E8000414A02EBC10101F13800FDF7FBF93D4871
:102E9000047004203B49097801EB410202EBC101B7
:102EA000394A02F831003749097801EB410202EB57
:102EB000C10100E012E0344A02EBC101486BFDF7AA
:102EC000B9F93049097801EB410202EBC1012E4A00
:102ED00002EBC10101F13800FDF7E1F900BF681C08
:102EE000C5B240E0601CC4B2082C00D1002404EB41
:102EF000440000EBC400244911F83000082832D106
:102F000004EB440000EBC40001EBC000007A012890
:102F100029D104EB440000EBC40001EBC000D0E970
:102F20000820643A70F1000008D2102004EB44013C
:102F300001EBC401144A02F8310014E004EB440030
:102F400000EBC400104901EBC000D0E9081064395F
:102F500060F1000004EB440202EBC4020A4B03EBF5
:102F6000C202C2E90810281EA5F10101CDB2B9D1F3
:102F70000121024800F01DF800BFE1E60004004016
:102F8000F815002004160020F8B90020F0150020E4
:102F900010B50121044800F01BF818B101210248C6
:102FA00000F007F810BD000000080040CA4302828C
:102FB0007047CA430282704721B1028842F0010281
:102FC000028004E002884FF6FE731A4002807047C8
:102FD00030B50246002000230024158A05EA0103CB
:102FE000958905EA010413B10CB1012000E000202D
:102FF00030BD1AB183890B43838102E083898B43FF
:1030000083817047002202881D4B98420ED01D4BD1
:1030100098420BD0B0F1804F08D01B4B984205D09E
:103020001A4B984202D01A4B984204D14FF68F7334
:103030001A404B881A43174B984207D0164B9842B8
:1030400004D04FF6FF431A40CB881A4302808B8886
:1030500083850B8803850A4B98420BD0094B984215
:1030600008D00E4B984205D00D4B984202D00D4B24
:10307000984201D10B7A03860123838270470000B6
:10308000002C0140003401400004004000080040D2
:10309000000C0040001000400014004000400140BF
:1030A000004401400048014010B540F2255110484D
:1030B00000F032F8D8B10F48008818B9012000217B
:1030C00000F094FF0A4800F0E3F80B490988094A28
:1030D00012888C18E11704EB91518912A4EB81211D
:1030E000064A505403480088401C0249088010BD1D
:1030F00000380140AE150020AC150020F8950020E6
:1031000021B1828942F40052828104E082894DF625
:10311000FF731A408281704770B502460024002375
:103120000025002040F66A16B14200D100BFC1F36D
:10313000421501F01F03012606FA03F3012D02D107
:103140009689334006E0022D02D1168A334001E011
:10315000968A33400C12012606FA04F4168834408D
:1031600013B10CB1012000E0002070BDF0B50346A2
:10317000002400260025002040F66A17B94200D13D
:1031800000BF1846C1F3421401F01F06012707FAD9
:1031900006F5012C01D10C3004E0022C01D11030D5
:1031A00000E014301AB107682F43076002E0076897
:1031B000AF430760F0BD00002DE9F04786B005463B
:1031C0000E460024A24600BFA1460027B08900B1E8
:1031D00000BF2F462C8A4CF6FF700440F088044351
:1031E0002C82AC894EF6F3100440B0883189084334
:1031F000718908430443AC81AC8A4FF6FF40044018
:10320000B0890443AC8201A8FFF730FC1F48874215
:1032100002D1DDF810A001E0DDF80CA0A88900F4CF
:10322000004040B10AEBCA0000EB0A1031684900C7
:10323000B0FBF1F807E00AEBCA0000EB0A103168B6
:103240008900B0FBF1F86420B8FBF0F0040120091C
:10325000642101FB1089A88900F4004040B13220AC
:1032600000EBC900B0FBF1F000F00700044308E0F8
:10327000322000EB09106421B0FBF1F000F00F00E8
:1032800004432C8106B0BDE8F087000000380140FF
:1032900001468888C0F30800704700BFFEE7490078
:1032A00050EAC12018BF04204A0D18BF40F00100A9
:1032B00040F2FF72B2EB515F08BF40F002000128FC
:1032C00008BF0520704730380A2801D20120704716
:1032D0000020704700BF70472DE9F04104460D46BD
:1032E00016461F46C5EB05111B4A02EB011131F8CA
:1032F00014100912C5EB0512174B03EB021212F85A
:10330000142041EA022188B23A46314600F012F90F
:103310004FEA2028C5EB05110F4A02EB011131F8E5
:1033200014100912C5EB05120B4B03EB021212F835
:10333000142041EA022188B23A46314600F0FAF8F8
:1033400048EA0020C5EB0511034A02EB011121F800
:103350001400BDE8F0810000C852002030B50146DD
:10336000264B1A781B785B1C244C237023461B7851
:103370000F2493FBF4F504FB1533204C237002EB70
:1033800082031F4C04EB8300F0234370FF23C370C0
:103390000123037081B91B4B43601B4C84601324D1
:1033A00004730024447384731324C47319240474B1
:1033B000164B174C23600FE0164B4360164C84608D
:1033C0001C2404730024447384731C24C4732424B5
:1033D0000474124B0E4C2360037CC3F1B80383705A
:1033E0000F4B1C781B785B1C0D4D2B700D4B43F85D
:1033F000240000230C4C44F8223030BD6A15002014
:10340000909400207C660308326A03080000404163
:103410006C1500200D6C0308ED730308000070416B
:103420006015002068940020BC9500202DE9F84F1D
:1034300081460F460025022F01D9781E00E00020AA
:103440008046FCF7FEFE8346FCF710FF0090FCF779
:103450000FFF82460024012031490870314800786E
:1034600018B130480078082802DD0020BDE8F88F48
:103470002C480078401E2B49087000261AE006EB05
:10348000460000EBC600284911F8300020280FD173
:10349000012006EB460101EBC601234A02F8310088
:1034A00006EB460000EBC600114601EBC00503E049
:1034B000701CC6B2082EE2DB00BF0020184908705D
:1034C000002129616961C5F80490184901EB862142
:1034D0004FF47472A2EB8802881800F011FF686341
:1034E000B8F1010F09D9A8F101018A00696B01F156
:1034F00034000BF12801FDF723F96C6B6FF0060027
:10350000E060C4F810906561A7610098E061084828
:10351000A0624FF08070E062C4F830A02846A5E7B2
:10352000F0150020F1150020F8B90020F8990020CE
:10353000213F00082DE9F84F0346DF0AC3F3451C7D
:1035400003F01F084FEAD129C1F3451A01F01F000B
:103550000090C2F1FF0078434FF0FF0B90FBFBF0AF
:1035600009FB02FB4FF0FF0E9BFBFEFB584484B2AD
:10357000C2F1FF0000FB0CF0F34690FBFBF00AFBEE
:1035800002FB9BFBFEFB584485B2C2F1FF0000FB2F
:1035900008F0F34690FBFBFB0098504390FBFEF0D5
:1035A000584486B21F2C01DD1F2000E0204604464F
:1035B0003F2D01DD3F2000E0284605461F2E01DD9E
:1035C0001F2000E030460646E00240EA4510304346
:1035D00080B2BDE8F88F000010B50446012C05D17B
:1035E00002F076F977487849086006E0022C04D1A9
:1035F00002F0A4F9754874490860FEF761FE0020E6
:1036000073490860642000F069FD01207149C1F828
:103610009401642000F062FD01206F49086064207D
:1036200000F05CFD1120FEF787FF782000F056FDCA
:103630003620FEF781FF6948006818B90020FEF7C0
:1036400075FF12E065480068012803D1C020FEF72D
:103650006DFF0AE061480068022803D17020FEF780
:1036600065FF02E0A020FEF761FF3A20FEF764FF4D
:103670000520FEF75BFFB220FEF75EFF0C20FEF791
:1036800055FF0C20FEF752FF0020FEF74FFF3320BE
:10369000FEF74CFF3320FEF749FFB720FEF74CFF43
:1036A0003520FEF743FFBB20FEF746FF1920FEF74B
:1036B0003DFFC020FEF740FF2C20FEF737FFC22061
:1036C000FEF73AFF0120FEF731FFC320FEF734FF7B
:1036D0001220FEF72BFFC420FEF72EFF2020FEF75E
:1036E00025FFC620FEF728FF0F20FEF71FFFD02082
:1036F000FEF722FFA420FEF719FFA120FEF716FF18
:10370000E020FEF719FFD020FEF710FF0420FEF79F
:103710000DFF0D20FEF70AFF1120FEF707FF132013
:10372000FEF704FF2B20FEF701FF3F20FEF7FEFE11
:103730005420FEF7FBFE4C20FEF7F8FE1820FEF7A3
:10374000F5FE0D20FEF7F2FE0B20FEF7EFFE1F2028
:10375000FEF7ECFE2320FEF7E9FEE120FEF7ECFE8B
:10376000D020FEF7E3FE0420FEF7E0FE0C20FEF77B
:10377000DDFE1120FEF7DAFE1320FEF7D7FE2C2027
:10378000FEF7D4FE3F20FEF7D1FE4420FEF7CEFE2A
:103790005120FEF7CBFE2F20FEF7C8FE1F20FEF7BC
:1037A000C5FE1F20FEF7C2FE2020FEF7BFFE23202D
:1037B000FEF7BCFE2120FEF7BFFE2920FEF7BCFE6F
:1037C00010BD0000003001405815002000380040B6
:1037D0009401224200002242AC8123425415002071
:1037E0002DE9F14F96B00120FE4908700020F0232A
:1037F0001A4601460090FEF7E9FC01208DF84000D2
:10380000FF208DF8430000208DF8410078208DF8CE
:103810004200F5480078C0EB4011C1EB0020F349AD
:1038200001EB00111291F0480078C0EB4011C1EBA0
:103830000020EF4901EB401011903C2110A80173CA
:103840000021417381733C21C173017410A9E948BF
:1038500002780078401CE74B1870E74840F82210C7
:10386000169802F00FF802F091F9CDE90E0100BFB1
:103870004FF00009CA4624E302F088F905460E46D7
:103880004FF0320ACDE04FF00009C2E0C9F1F0007C
:10389000782801DB782001E0C9F1F00000F0FF0B8F
:1038A000CAF1BE00462801DB462001E0CAF1BE0095
:1038B000C0B20B90D14801780B980AF0FF0309F0D1
:1038C000FF02CDE900B002910221084601F020FB81
:1038D000002482E0C84850F824000078E8B30128AA
:1038E00077D10AF0FF0009F0FF020B99CDE908B18A
:1038F000CDE90620C04850F82400C178BE4850F8F1
:103900002400027CBC4850F82400C07BBA4B53F81A
:1039100024309B7BCDE90230CDE90421B64850F834
:103920002400407BB44951F82410097BDFF8C8C259
:10393000CDE900105CF824C0DCF80830DFF8B8C22C
:103940005CF824C0DCF80420DFF8ACC25CF824C0CA
:103950009CF80210DFF8A0C200E006E05CF824C08A
:103960009CF8010001F080FC34E00AF0FF0009F04F
:10397000FF020B99CDE905B1CDE903209E4850F82F
:103980002400C0789C4951F8241049899A4A52F879
:103990002420D268DFF860C2CDE9002102905CF8F3
:1039A00024C09CF80830DFF850C25CF824C0DCF872
:1039B0000420DFF844C25CF824C09CF80210DFF851
:1039C00038C25CF824C09CF8010001F0DDFC01E085
:1039D000FFE700BF00BF601C84B2864800788442C5
:1039E000FFF678AFB9F1000F02D1BAF1320F01D072
:1039F00002F014F901208249CDE900105A465146DF
:103A000048460B9BFEF720FD09F178001FFA80F96C
:103A100000BFB9F1F00FFFF639AF0AF146001FFA07
:103A200080FABAF1BE0FFFF62EAF01F0C7FF0028F3
:103A300072D002F0F3F87348028873A107A8FCF76C
:103A4000F9FC012018214FF6FF724FF47843CDE9BD
:103A50000021029071A205210846FEF73DFD0120DC
:103A600010214FF6FF721346CDE90021029007AAFC
:103A700020210520FEF730FD012010214FF6FF72B6
:103A80001346CDE90021029067A2C9210520FEF767
:103A900023FD012010214FF6FF721346CDE90021CE
:103AA000029069A2DB210520FEF716FD4FF47A7023
:103AB00000F014FB2CE06648007800F0010060B1D3
:103AC0000020F0231A4601460090FEF77FFB00F02D
:103AD000C7FC0120434908701CE05D48007800F0F5
:103AE000020090B148F23040F0231A4600210090C5
:103AF0000846FEF76BFB00F0B3FC00203D49087060
:103B00003849087017B0BDE8F08F642000F0E6FA7D
:103B1000D1E701E000BF00BF4E4801684FF081408F
:103B200002F096FD83464C480168584602F094FB2B
:103B30004949086006E049494748006802F086FEA6
:103B40004549086045494448006802F04DFEF2D9F5
:103B50004148006802F0B0FC284908702249097801
:103B6000481CC11700EB91718910A0EB81011E4A1E
:103B7000117010460078C0EB4011C1EB00201B49CA
:103B800001EB0011129110460078C0EB4011C1EB1F
:103B90000020174901EB4010119031480078F8B12E
:103BA0002C4801682F48006802F056FB2D49086038
:103BB0000DE09DF842102C4802780078401C2A4BFA
:103BC00018702A48805C0844C0B28DF8420025482D
:103BD0004FF07E51D0F800B0006802F037FE47E0A9
:103BE00068E0000068150020781500203C2E0308CE
:103BF000BCBD0208601500206894002079150020E3
:103C0000C85200207A150020596F75722053636FD7
:103C100072653A20253035640000000047616D650B
:103C2000204F7665720000005072657373204B451B
:103C3000593020746F2072657472792C204B45596D
:103C40003120746F20000000717569742E0000002F
:103C50005C1500207C150020881500200000F04233
:103C60008D150020841500208C1500207A4F020845
:103C70009449086000215846CDF82CB002F0B4FDFC
:103C800003D2914800780C2893DB00218D4800680E
:103C900002F0AAFC07D24FF07E518A48006802F079
:103CA000DBFA88490860884800780C2802DB00208D
:103CB000864908708648007800F0010050B18348BA
:103CC000007838B901208149087000207E490870C9
:103CD0007C49086001F0B8FE00217E48006802F0CF
:103CE00083FC35D2FCF7E8FA642190FBF1F201FB8A
:103CF000120000F0FF0B78497848006802F0A8FC39
:103D00000B90584602F05CFC0A900B9902F06CFC98
:103D10001DD2FCF7D1FA642190FBF1F201FB1200F5
:103D200000F0FF0B6C496E48006802F091FC0B90AC
:103D3000584602F045FC0A900B9902F055FC03D25C
:103D40000120FFF70BFB02E00020FFF707FB07E075
:103D5000644801685F48006802F078FD5D490860CA
:103D600061480068401C6049086060480088401C49
:103D70005E49088008460088782190FBF1F201FB3B
:103D80001200E8BB5748006802F03AFA584A594B0B
:103D9000CDE90A0102F084F845D25248006802F0E9
:103DA0002FFA534A544BCDE9080101F0C5FFCDE984
:103DB0000A0101F08FFF4B490860504801684748ED
:103DC000006802F049FA454908604D4801684348D7
:103DD000006802F009FD03D2494800683F490860C5
:103DE000484801683E48006802F036FA3C490860DD
:103DF000454801683A48006802F0F6FC05D200E048
:103E000011E041480068364908603648006802F011
:103E1000F7F9374A374BCDE90A0102F0D1F802D25F
:103E20003A483049086001F0B1FE074688463848F4
:103E30000078B8B136480078364991FBF0F0C117E8
:103E40007B1B68EB0602181A8A4107D230480078BB
:103E5000304991FBF0F0791B401A00E000208346C6
:103E600000F0A8F901F092FEDDE90E23821A61EB61
:103E70000301284B00209A1A884122D201F086FEC5
:103E8000DDE90E23801A61EB0301CDE90C0101F09D
:103E90007DFECDE90E01DDE90C0102F061FB0B9026
:103EA0001148006802F08CFB1B490A9002F0D0FB1D
:103EB00083460B9902F03EFA1849086000200A492F
:103EC0000860D9E4841500208C1500208D15002091
:103ED0005C1500206C1500200000C84290150020E1
:103EE0009C1500207C150020641500207A15002008
:103EF0009A999999999901409999B93F98150020F3
:103F000094150020A4150020A0150020CDCC0C4055
:103F10007015002040420F000024744974150020E1
:103F20001FB58346894615469A46002000900190A9
:103F300002900390CDF800A0CDF804A0012D25D962
:103F4000002409E0182101EB8400FCF793F9611CBF
:103F50004DF82100601CC4B2681EA042F2D807E0F0
:103F6000601C401B5DF82010601C4DF82010C4B28E
:103F7000E81C8442F4D3002406E0201D5DF82000F4
:103F80004DF82400601CC4B2AC42F6D3A800FCF784
:103F900068F9D847884607460120114908704E46FF
:103FA000C6E90A78307E38B1202030700D4800789C
:103FB000401C0C49087001E002203070306B401C3E
:103FC00040B11020316B01EB410202EBC101064A06
:103FD00002F8310000200249087000BFFEE700002F
:103FE000F0150020F1150020F8B9002070B5024648
:103FF0000B46002049E000EB400101EBC001244CDE
:1040000014F8311008293ED100EB400101EBC0014A
:1040100004EBC101097A042935D100EB400101EB21
:10402000C00104EBC104D4E9041451405C402143B5
:1040300029D100EB400101EBC001154C04EBC10498
:10404000D4E9041451405C4000EB400505EBC00589
:104050000F4E06EBC505C5E9041400EB400101EB6A
:10406000C001344604EBC101D1E9044100256C4094
:1040700069400C4307D1102100EB400404EBC0045D
:10408000354605F83410411CC8B20828B3DB70BDB2
:10409000F8B900201FB501214807FEF7B7FC04203E
:1040A00001F0EAFA0021042001F0FCFA002000905F
:1040B000019002900220039069460020FDF7ACFCBD
:1040C00001210020FDF794FC0020024908800249EC
:1040D00008701FBD981400209E14002070B504467F
:1040E00004B970BDFCF7AAF8C1B211B32D4A128809
:1040F00062434FF0E0235A6100229A611A46126926
:1041000042F001021A6100BF4FF0E022116901F094
:1041100001021AB101F48032002AF5D04FF0E022FA
:10412000126922F001024FF0E0231A6100229A6125
:10413000D7E701211C4A11704FF47A7204FB02F197
:1041400000221A4B1B7803EB430505EBC303184D04
:1041500005EBC303C3E908120121144A127802EBEC
:10416000420303EBC2022B4603EBC2021172082189
:104170000E4A127802EB420303EBC2022B4603F80D
:1041800032100021084A117000BF0849097801EB7C
:10419000410202EBC101064A12F831100829F4D09D
:1041A00000BF9EE702160020F01500200416002034
:1041B000F8B9002010B5044604B910BDFCF73EF86C
:1041C000C1B211B32B4A127862434FF0E0235A6117
:1041D00000229A611A46126942F001021A6100BF78
:1041E0004FF0E022116901F001021AB101F48032AE
:1041F000002AF5D04FF0E022126922F001024FF0C0
:10420000E0231A6100229A61D7E701211A4A11704E
:1042100000211A4A127802EB420303EBC202184B48
:1042200003EBC202C2E908410121144A127802EBF1
:10423000420303EBC202124B03EBC20211720821CC
:104240000E4A127802EB420303EBC2020C4B03F856
:1042500032100021084A117000BF0849097801EBAB
:10426000410202EBC101064A12F831100829F4D0CC
:1042700000BFA2E700160020F01500200416002061
:10428000F8B900202DE9F04104460F4615460026F6
:1042900007F0010704F00F040AE00F2C08DCAA5D08
:1042A0003946204600F00AF8701CC6B2601CC4B241
:1042B000A85D2028F1DABDE8F081000070B5044661
:1042C0000D46164600BF0D4800780028FBD101209E
:1042D0000A49087005F0010504F00F040DB144F01F
:1042E000400444F080040021204601F0A7FC304641
:1042F00001F0C0FC00200149087070BD5000002092
:10430000014621F00300704700B502460B46D0B2CB
:1043100001F0A4F9104600BD00B970470146012222
:10432000044B1A700A784A7040220A7000221A70F0
:1043300000BFF2E7F01500202DE9F04107460D46D9
:1043400014460026A04617E0E9B2072301223846AA
:10435000FDF7C8FA01213846FDF725FB00BF022111
:104360003846FDF783FA0028F9D03846FDF77AFA87
:1043700006440520FFF7B2FE201EA4F10104E3D19C
:10438000B6FBF8F0BDE8F08126E0012211461348A3
:10439000FFF7D2FF0546002406E0214610480078CA
:1043A000FEF7C4F9601CC4B2402CF6DBC5EB8510E7
:1043B00040F6FF71B0FBF1F0C4B209490878097802
:1043C000491C074B19702146FEF7ECF9FEF708FA75
:1043D0000A20FFF7EFFE00BFD7E7000000240140EE
:1043E0005015002010B500220221502001F0FEF9E6
:1043F00000220221512001F0F9F90022022152206D
:1044000001F0F4F900220221532001F0EFF900221B
:104410000221542001F0EAF900220221552001F086
:10442000E5F900220221562001F0E0F900220221E4
:10443000572001F0DBF900220221582001F0D6F9C3
:1044400000220221592001F0D1F910BD10B517202A
:1044500001F030FA0021172001F024F910BD00000E
:1044600001201149087000201049086010490870A7
:104470001049087010490860104908701049087008
:10448000104908804FF07E500F49086000200F4906
:1044900008600F4908600F4908600F4908700F490C
:1044A00008700F49087070476015002064150020DF
:1044B000691500206A1500206C1500207815002071
:1044C000791500207A1500207C1500208015002029
:1044D00084150020881500208C1500208D150020E3
:1044E000A81500201FB56FF00400FEF7DDFB3E4865
:1044F00000683E49B0FBF1F03D490870084600787D
:1045000000EB4001C1EBC0104FF6FF7101EAC000A3
:1045100038490880012009E0202100EB400202EB2D
:10452000C002354B03F83210411CC8B20828F3DB37
:10453000002032490870401E097801EB410202EB6D
:10454000C1012D4A02EBC101086304202B490978FF
:1045500001EB410202EBC101274A02F831000720BA
:10456000274908704FF4A060FEF7BEF80121022031
:10457000FEF74CFA0920ADF8080040F2CF20ADF864
:10458000040000208DF80C00ADF806004FF4007018
:10459000ADF80A0001A91B48FEF734FD01211948B6
:1045A000FEF704FD012211461648FEF722FD1D20EC
:1045B000012181404209920002F1E022C2F800117B
:1045C00000BF8DF8000001208DF8030000208DF859
:1045D00001008DF802006846FEF74EF801210948F7
:1045E000FEF7EAFC1FBD00001800002000127A0050
:1045F0000016002002160020F8B900200416002042
:10460000F1150020000400402DE9F04104460E465B
:1046100015461F46206860B916480068284040B11A
:104620000120206001F0B2FAC6E900010120BDE8D6
:10463000F081206830B10F480068284010B9002090
:104640002060F4E79FB90B480068284078B101F07A
:104650009DFA8446D6E90023BCEB020261EB03001D
:10466000054B00219A1A814101D20120DFE7002089
:10467000DDE700005C15002040420F0094B00020F0
:1046800013901290119010900F900E904FF00A0A14
:10469000EDE001F07BFA06460F46002308220CA944
:1046A00013A8FFF7B1FFB0B1714800880A30704914
:1046B000088008460088B0F5805F01DB0020088094
:1046C000002000906B4803886B4802886848018886
:1046D0006AA0FBF7A3FE002310220AA912A8FFF785
:1046E00093FFB8B1624800880A38614908800846DB
:1046F0000088B0F5805F02DB40F6FF700880002084
:1047000000905C4803885C480288594801885BA097
:10471000FBF784FE0023202208A911A8FFF774FFED
:10472000A8B155480088401C5349088008460088B5
:10473000642801DD00200880002000904D48038897
:104740004D4802884A4801884CA0FBF767FE0023C9
:10475000402206A910A8FFF757FFC0B146480088BD
:10476000401E45490880084600884FF6FF71884280
:1047700002D1642040490880002000903D48038811
:104780003D4802883A4801883CA0FBF747FE0023D9
:10479000802204A90FA8FFF737FFA8B13548008889
:1047A000401C34490880084600880A2801DD0120A1
:1047B0000880002000902F4803882F4802882C484A
:1047C00001882EA0FBF72AFE00234FF4807202A975
:1047D0000EA8FFF719FFD0B126480088401E2549D2
:1047E0000880084600880A2803DC0846008801285B
:1047F00002DA0A201F490880002000901D48038823
:104800001D4802881A4801881CA0FBF707FE01F02A
:10481000BDF904460D46BAF1000F28D0B4EB0608E6
:1048200065EB07014FF47A7200234046FBF77FFDEA
:104830004FF47A7292FBFAF2D317801A994112D28E
:104840004FF47A7090FBFAF8A11B65EB07004FF468
:104850007A720023CDE9001008460199FBF767FD45
:10486000B8EB000000E000208346FFF737FC10E7BC
:10487000981400209C1400209A1400205B444143AB
:104880005D253035642C205B445554595D2530330B
:10489000642C205B46524551454E43595D253035C9
:1048A000640D0A0070B504460D4644B10120364936
:1048B000087004203549087000203549087015B18A
:1048C0000120344908706E2000F0F4FF3148007870
:1048D00010B96C2000F0EEFF6A2000F0EBFF00F052
:1048E0006BFF002000F012FF27480078C8B10021BC
:1048F000032001F0A3F90520FFF7F0FB00210320BE
:1049000001F09CF90520FFF7E9FB0021032001F0ED
:1049100095F90120FFF7E2FB0021022001F08EF95A
:104920001AE01B49097841F02800002101F086F9BE
:104930000520FFF7D3FB1649097841F02800002134
:1049400001F07CF90120FFF7C9FB1149097841F01A
:104950002800002101F072F90D49097841F0280082
:10496000012101F06BF901210C2001F067F901210F
:10497000084601F063F90121062001F05FF90121E9
:10498000142001F05BF970BD2C0000202E000020E7
:104990002F0000202D00002088B04FF0010A5EE0BB
:1049A00001F0F4F806460F462D48006801F028FC97
:1049B000804642460B462BA102A8FBF73BFD02AA0C
:1049C00000210846FFF75EFC2A48006801F018FC49
:1049D000804642460B4628A102A8FBF72BFD02AAFF
:1049E00001210020FFF74EFC2548028825A102A8DE
:1049F000FBF720FD02AA01210720FFF743FC01F08D
:104A0000C5F804460D46BAF1000F28D0B4EB0608ED
:104A100065EB07014FF47A7200234046FBF787FCF1
:104A20004FF47A7292FBFAF2D317801A994112D29C
:104A30004FF47A7090FBFAF8A11B65EB07004FF476
:104A40007A720023CDE9001008460199FBF76FFC4C
:104A5000B8EB000000E000208346FFF73FFB9FE734
:104A6000741500204C43445F4650533A20252E32A3
:104A7000660000007C150020563A20252E31660085
:104A80007A150020533A20253035640070B504466D
:104A900025460FE00021452000F004FE4FF4FA7097
:104AA000FFF71CFB0121452000F0FCFD4FF4FA70DC
:104AB000FFF714FB201EA4F10104EBD1284670BDC2
:104AC00000B585B0FFF70EFDFFF7E4FA00210120E5
:104AD000FFF7E8FE022000F0DDF80120FEF77CFD84
:104AE000FFF780FCFFF7B2FC00F0C2FC4FF4E130AE
:104AF00001F052F84FF4A060FDF7F6FD152000F02C
:104B0000D9FE452000F0D6FE0121152000F0CAFD97
:104B10000121452000F0C6FD4FF6FF70F0231A4634
:104B2000002100900846FDF751FB48F23040F02389
:104B30001A46002100900846FDF748FB0322012198
:104B40004B48FEF773FC07460121384600F02CFF66
:104B500000214848FEF76AFC80460121404600F0EB
:104B600023FF00214448FEF761FC4449086001210D
:104B70004248006800F018FF00214148FEF756FC4B
:104B800081460121484600F00FFF00213D48FEF715
:104B90004DFC82460121504600F006FF00213A48B4
:104BA000FEF744FC83460121584600F0FDFE002438
:104BB0005846FFF7B1FB5046FFF7AEFB002556E025
:104BC0006D1C642095FBF0F100FB115048B90322E5
:104BD00001212748FEF72AFC07460121384600F04C
:104BE000E3FE152000F04FFD0123022202A904A8D4
:104BF000FFF70AFD40B32548007868B964B940461C
:104C0000FFF78AFBFDF77AFD584600F015FD504688
:104C100000F012FD012427E034B35846FFF77CFB77
:104C20005046FFF779FBFDF769FD404600F004FDB3
:104C30000024002201211648FEF7F8FB0646012158
:104C4000304600F0B1FE0FE01048007860B95CB962
:104C50004046FFF761FBFDF751FD584600F0ECFCC4
:104C6000504600F0E9FC01243220FFF737FAA7E7AD
:104C70008D4A0008D94D0008994900081400002009
:104C80007D460008D55300088943000868150020B8
:104C9000E137000810B50446012C05D100F018FEDC
:104CA00048484949086006E0022C04D100F046FE5D
:104CB0004648454908603B2000F0FCFD3D2000F0DF
:104CC000F9FD392000F0F6FD002041490860C820B8
:104CD000FFF704FA01203F49C1F8A4010021AE20EA
:104CE000FDF744FE00210846FDF740FE002110209C
:104CF000FDF73CFE00214020FDF738FE0021812019
:104D0000FDF734FE0021CF20FDF730FE0021A12069
:104D1000FDF72CFE0021C820FDF728FE0021A6206B
:104D2000FDF724FE0021A820FDF720FE00213F20F2
:104D3000FDF71CFE0021D320FDF718FE00210846D8
:104D4000FDF714FE0021D520FDF710FE0021802084
:104D5000FDF70CFE0021D920FDF708FE0021F1200F
:104D6000FDF704FE0021DA20FDF700FE00211220ED
:104D7000FDF7FCFD0021DB20FDF7F8FD00214020C0
:104D8000FDF7F4FD00212020FDF7F0FD00210220B9
:104D9000FDF7ECFD00218D20FDF7E8FD002114203A
:104DA000FDF7E4FD0021A420FDF7E0FD0021A62091
:104DB000FDF7DCFD0021AF20FDF7D8FDFDF79EFCDF
:104DC00010BD0000003001408C140020003800406D
:104DD000A4812242008022428EB04FF0000A00F0EF
:104DE000D5FE8046894600BFCDF814A0002004906F
:104DF00003904FF00A0B72E000F0C8FE04460D4627
:104E0000B4EB080265EB0901354B00209A1A884182
:104E10002FD2B4EB080065EB0901CDE90601A046ED
:104E2000A9460598AAEB00000490CDF814A0DDE98E
:104E3000060101F095FB0290049801F079FB2949E5
:104E4000009001F005FC0190029901F073FA0390C3
:104E5000039801F0D5F902460B46CDE9000122A1E5
:104E600008A8FBF7E7FA102308AA14210020FDF791
:104E70005BFD52461FA108A8FBF7DCFA102308AA25
:104E800000210846FDF750FD1D481EA1026808A834
:104E9000FBF7D0FA102308AA28210020FDF744FDD3
:104EA000FDF79EFC0AF1010A00F070FE06460F466F
:104EB000BBF1000F13D00A4890FBFBF0C117331B66
:104EC00067EB0502181A8A4105D2054890FBFBF0F2
:104ED000311B401A00E000200290FFF76BF98BE7CE
:104EE00040420F00002474494650533A20252E3288
:104EF00066000000436F756E743A202530376400F9
:104F00005C1500204B4559533A202530335800009A
:104F10002DE9F04F05460E46DDF824800B9C00205D
:104F200047E0002141E002EB010999FBF5F909F0A6
:104F3000FF0703EB000999FBF6F909F0FF0C07EBFB
:104F400004094FF0780A99FBFAFB0AFB1B99CCEB9A
:104F50000C1ADFF868B00BEBCA0A1AF80990DFF8F0
:104F600060A03AF819904FEA292907EB040A4FF09C
:104F7000780B9AFBFBFE0BFB1EAACCEB0C1BDFF89D
:104F80003CE00EEBCB0B1BF80AA0DFF834B01BF8AB
:104F90001AA049EA0A29C0EB001ADFF828B00BEB87
:104FA0000A1A2AF811904F1CF9B24145BBDB411C8B
:104FB000C8B20A998842B4DBBDE8F08F7A83020850
:104FC000BABB0208C85200202DE9FF4F8AB08146C3
:104FD00015461C46DDE91AABCDF81090204604EBCF
:104FE000D071C1F34706D14501DD484600E0504687
:104FF00003900B98584501DD0B9800E0584601904E
:1050000009EB06011C985044814202DA09EB0600C4
:1050100001E01C985044C0B202900B9801191D98F1
:105020005844814202DA0B98204401E01D9858440C
:10503000C0B20090DDE90201884203DDDDE9000134
:10504000884202DC0EB0BDE8F08F3046F21706EB66
:105050005272D2103146F31706EB5373DB10A6EBF6
:10506000C3030BB1012300E000231A4492B205925E
:10507000A5F12000C5B2DDF80480E5E00399A1EBBD
:105080000900C11700EB5171CA100B99A8EB01037D
:10509000059903FB0121CFB20399A1EB0900C117C8
:1050A00000EB5171C910A0EBC101C9B20891089879
:1050B000C0F10800C0B207900C2C07D105EB4500E9
:1050C000644901EB8000C05D09901AE0102C05D105
:1050D000614800EB0510C05D099012E0182C07D163
:1050E00005EB45005D4901EB0010C05D099008E04B
:1050F000202C05D15A4800EB8510C05D099000E0D6
:10510000A0E70398069096E01998FF2822D0012185
:10511000089801FA00F00999084058B1A8EB0B0271
:10512000D1B2069AA2EB0A02D0B2DDE91823FEF74B
:10513000D3F83CE01798401C20B3179B9AB2A8EB19
:105140000B03D9B2069BA3EB0A03D8B2199BFEF757
:10515000C3F82CE00121089801FA00F009990840F1
:1051600088B11898011241EA002081B2A8EB0B0027
:10517000C0EB00103B4A02EB00120698A0EB0A00BD
:1051800022F8101013E01798401C80B117980112F4
:1051900041EA002081B2A8EB0B00C0EB0010314ABD
:1051A00002EB00120698A0EB0A0022F810100898F3
:1051B000401CC0B208900798401EC0B207900798E4
:1051C00078BB0C2C0AD105EB4500224901EB80018C
:1051D000781CC0B20746085C099024E0102C08D166
:1051E0001D4800EB0511781CC0B20746085C099009
:1051F00019E0182C0AD105EB4500184901EB001104
:10520000781CC0B20746085C09900CE0202C09D13C
:10521000134800EB8511781CC0B20746085C099062
:1052200001E004E00EE700200890082007900698AF
:10523000401C80B20690029906988842FFF664AF3F
:1052400008F101001FFA80F800988045FFF616AFBC
:1052500000BFF7E6864F0208FA530208EA5902082F
:10526000BA6B0208C85200202DE9FF4F85B00446F2
:105270000D469346DDE91867B44201DD204600E0A3
:1052800030460490BD4201DD284600E038460390D8
:10529000159821181A983044814202DA1598204452
:1052A00001E01A983044C0B20290169829181B9851
:1052B0003844814202DA1698284401E01B983844A9
:1052C000C0B2019004990298884203DD03990198C5
:1052D000884202DC09B0BDE8F08FDDF80C804BE0BD
:1052E000DDF8109041E0A8EB0501149808441299EC
:1052F00048434100A9EB04021398104401EB40001D
:105300000090089830B10099089800EB510000789F
:1053100000B926E00098401C1BF8001000981BF80C
:10532000000041EA002A1798FF280AD0A8EB0702DC
:10533000D1B2A9EB0602D0B25246179BFDF7CCFFC3
:105340000EE04FEA2A2040EA0A20A8EB0701C1EB51
:1053500001110C4A02EB0111A9EB060221F812001F
:1053600000BF09F1010000F0FF0902988145BADB96
:1053700008F1010000F0FF0801988045B0DB00BF94
:10538000A8E70000C85200202DE9FF4F88B006466C
:1053900014461D4615AF97E8800F284605EBD071DF
:1053A000C1F3470107910FE0DDE91A108DE8800F86
:1053B000CDE9051022782B4630460999FFF704FE07
:1053C000641C07983044C6B220780028ECD10CB099
:1053D000BDE8F08F17E00C4909880C4A92FBF1F008
:1053E000C11700EB11510D13002408E02146621C87
:1053F00094B20020FCF72AFB2846FEF7DBFEB4F54A
:10540000805FF3DB00BFE6E79C14002040420F0002
:1054100070B504460D462046E11704EB11710911E1
:10542000A4EB01110E4A32F811100E4A11801046F9
:10543000C5702646E11704EB117109110A4A52F8AA
:1054400021000121FDF7F2FAE11704EB11710911B6
:10545000064A52F821000349FCF79CFD70BD00008C
:10546000E0770308DC15002000780308C015002051
:1054700010B586B04FF40040FDF7ACFA2A48FCF7AF
:10548000B9F901214802FDF7D1FA01214802FDF7DF
:10549000DDFA00214FF40070FDF7D8FA00208DF8F6
:1054A000090004904FF46020039000200190012037
:1054B0008DF8140000208DF8080001A91A48FCF7A7
:1054C000E9F901211848FCF789F90120FCF77CFA79
:1054D0001548FCF763FA00BF1348FCF7D0F9002821
:1054E000FAD11148FCF76AFA00BF0F48FCF7B0F98F
:1054F0000028FAD10723012210210B48FCF7F2F90A
:1055000001210948FCF74FFA00BF02210648FCF7C9
:10551000ADF90028F9D00448FCF7A4F90446FBF7DC
:10552000F1F806B010BD00000024014070B504463B
:105530002546E21704EB12721211A4EB0212074B7C
:1055400033F812102646E21704EB12721211044BC4
:1055500053F82200FCF7A9FD70BD0000E0770308B6
:10556000C015002070B5FF251848047807E01849D9
:1055700051F82400FFF7DAFFA0400540641C082C16
:10558000F5DB00216A2000F08DF812480078D0B1D8
:105590000120FEF70FFE01216A2000F083F80120B0
:1055A000FEF708FE002408E0094A211D52F82100F8
:1055B000FFF7BCFFA0400540641C042CF4DB002175
:1055C0006A2000F06FF8284670BD00002E00002011
:1055D000300000202C00002010B51648007820B1C3
:1055E0000120FEF7E7FD002010BD00216A2000F039
:1055F00059F800F04DF900F0CDF800216E2000F0D0
:1056000051F801216C2000F04DF801216A2000F0D2
:1056100049F80120FEF7CEFD00BF3020FFF786FFDE
:105620000028FAD1FFF79EFF044600F0C5F8204697
:10563000DAE700002D00002000B9704701460A7823
:10564000402A00D0F9E70122034B1A704A780A7009
:1056500000221A7000BFF0E7F015002000BF0549D6
:105660000968098801F040010029F8D0014909685A
:1056700088807047B015002010B5044600212046F0
:10568000FFF7C6FE10BD70B504462046FFF74EFF7B
:1056900008B9012000E0002005462946204600F018
:1056A00001F870BD2DE9F04104460E46A6B125462D
:1056B000E21704EB12721211A4EB0212114B33F831
:1056C00012102746E21704EB127212110E4B53F818
:1056D0002200FCF7F5FC13E02546E21704EB1272FA
:1056E0001211A4EB0212074B33F812102746E217EF
:1056F00004EB12721211044B53F82200FCF7DEFC8B
:10570000BDE8F081E0770308C015002070B50546BC
:105710001D48047809E00122A24002EA05011B4A63
:1057200052F82400FFF7BEFF641C082CF3DB0121B4
:105730006A20FFF7B7FF0120FEF73CFD00216A2039
:10574000FFF7B0FF12480078E0B10120FEF732FD0C
:1057500000240AE00122A24002EA05010B4B221DAF
:1057600053F82200FFF79EFF641C042CF2DB01219A
:105770006A20FFF797FF0120FEF71CFD00216A2039
:10578000FFF790FF70BD00002E00002030000020C9
:105790002C00002010B50648047805E0054951F8B2
:1057A000240000F01BF8641C082CF7DB10BD00007F
:1057B0002E0000203000002010B50648047805E0D7
:1057C000054951F8240000F075F8641C082CF7DB3B
:1057D00010BD00002E0000203000002010B504464F
:1057E00004212046FFF714FE10BD00002DE9F04112
:1057F00004460E461746204600F063F8012108468D
:10580000FDF714F92546E21704EB12721211A4EB0E
:105810000212164B995CA046E21704EB12721211A9
:10582000134B985CFCF796FB2046E11704EB1171D3
:105830000911A4EB01110F4A52F821100E4A116010
:105840001046FCF73DFB0D494E708F702046E11766
:1058500004EB11710911A4EB0111094A515C074ACB
:1058600011701046FCF708FFBDE8F081737803085B
:105870006C7803081C780308E0150020E815002068
:105880005C780308014A1070704700007015002012
:1058900010B50648047806E0054951F824000121B6
:1058A000FFF700FF641C082CF6DB10BD2E00002063
:1058B0003000002010B5044610212046FFF7A8FD57
:1058C00010BD10B5044648212046FFF7A1FD10BDCC
:1058D00000B585B018210520FFF79AFD1821072093
:1058E000FFF796FD01210803FDF7A0F84FF44040B3
:1058F000ADF800004FF48270ADF802000020ADF862
:1059000004000220ADF806000120ADF808004002B6
:10591000ADF80A000020ADF80C00ADF80E0007202D
:10592000ADF8100069460448FDF72AF90121024844
:10593000FDF706F905B000BD0030014000B585B0A7
:1059400018211D20FFF764FD18211F20FFF760FDBF
:1059500001218803FDF75AF84FF44040ADF80000EC
:105960004FF48270ADF802000020ADF80400022070
:10597000ADF806000120ADF808004002ADF80A00BD
:105980000020ADF80C00ADF80E000720ADF81000B7
:1059900069460448FDF7F4F801210248FDF7D0F804
:1059A00005B000BD003800400A4600B97047014606
:1059B0000A7610230B7000BFF8E7000070B520488E
:1059C0000078401EC4B232E01E4850F824004578EA
:1059D0001C4850F8240041781A4850F82400C07B35
:1059E0000844C6B2142D01DD1E2D0BDB142E01DD83
:1059F0001E2E07DB142D01DA142E03DC1E2D14DA03
:105A00001E2E12DD0F48006881780E480068007C69
:105A100008440C4951F824108978884205DD012199
:105A20001720FFF73FFE012070BD601EC4B2002C9E
:105A3000CADC1CB900211720FFF734FE0020F3E771
:105A400060150020689400202DE9F0474A4800784E
:105A5000401EC4B264E0494951F8240000F048FDFA
:105A6000C7B24FF082414648006800F0F1FD814620
:105A7000424850F82410484600F0EEFB3F4941F8F8
:105A8000240051F8240000F033FD00F0FF08A8EBDB
:105A90000700C5B23B4850F824004178394850F817
:105AA0002400007B0144374850F82400407B081A4A
:105AB000A84200DC36E0334850F824004078A84281
:105AC00009DB304850F824004078401B2D4951F83C
:105AD0002410487022E02B4850F82400407B2949CC
